:020000040800F2
:100000008004002035020008B9020008B902000887
:10001000B9020008B9020008B90200080000000097
:10002000000000000000000000000000B90200080D
:10003000B902000800000000B9020008B902000877
:10004000B9020008B9020008B9020008B9020008A4
:1000500000000000B9020008B9020008B902000857
:10006000B9020008B9020008B9020008B902000884
:10007000B9020008B9020008B9020008B902000874
:10008000B9020008B9020008B9020008B902000864
:10009000B9020008B9020008B9020008B902000854
:1000A000B9020008B9020008B9020008B902000844
:1000B000B9020008B9020008B9020008B902000834
:1000C000B9020008B9020008B9020008B902000824
:1000D000B9020008B9020008B9020008B902000814
:1000E000B9020008B9020008B9020008B902000804
:1000F000B9020008B9020008B9020008B9020008F4
:10010000B9020008B9020008B9020008B9020008E3
:10011000B9020008B9020008B9020008B9020008D3
:10012000B9020008B9020008B9020008B9020008C3
:10013000B9020008B9020008B9020008B9020008B3
:10014000B9020008B9020008B9020008B9020008A3
:10015000B9020008B9020008B9020008B902000893
:10016000B9020008B9020008B9020008B902000883
:10017000B9020008B9020008B9020008B902000873
:10018000B9020008B902000880B500AF00F02AF8F3
:1001900000F03CF8054BDB68044A83F40053D3605D
:1001A0004FF4FA7000F004F8F4E700BF00100140CB
:1001B00080B485B000AF786009E00023FB6002E006
:1001C000FB680133FB60FB68B3F57A7FF8D37B688B
:1001D0005A1E7A60002BF0D100BF00BF1437BD4615
:1001E00080BC704780B400AF074B1B68064A43F0E1
:1001F00001031360044B9B69034A43F010039361AE
:1002000000BFBD4680BC70470010024080B400AF04
:10021000074B5B68064A23F470035360044B5B682A
:10022000034A43F40013536000BFBD4680BC7047CF
:100230000010014080B586B000AF1A4A1A4BD31A9D
:100240007B60194B7B61194B3B610023FB600AE02B
:100250003A69531C3B617B69591C796112781A70A9
:10026000FB680133FB60FA687B689A42F0D3104A5E
:10027000104BD31A7B600F4B7B610023BB6007E000
:100280007B695A1C7A6100221A70BB680133BB601B
:10029000BA687B689A42F3D3FFF776FF00BF18373E
:1002A000BD4680BD0000002000000020C002000804
:1002B000000000200000002080B400AFFEE700BF77
:0400000508000235B8
:00000001FF
