:020000040800F2
:1000000080040020B1020008350300083503000811
:100010003503000835030008350300080000000020
:100020000000000000000000000000003503000890
:100030003503000800000000350300083503000800
:1000400035030008350300083503000835030008B0
:1000500000000000350300083503000835030008E0
:100060003503000835030008350300083503000890
:100070003503000835030008350300083503000880
:100080003503000835030008350300083503000870
:100090003503000835030008350300083503000860
:1000A0003503000835030008350300083503000850
:1000B0003503000835030008350300083503000840
:1000C0003503000835030008350300083503000830
:1000D0003503000835030008350300083503000820
:1000E0003503000835030008350300083503000810
:1000F0003503000835030008350300083503000800
:1001000035030008350300083503000835030008EF
:1001100035030008350300083503000835030008DF
:1001200035030008350300083503000835030008CF
:1001300035030008350300083503000835030008BF
:1001400035030008350300083503000835030008AF
:10015000350300083503000835030008350300089F
:10016000350300083503000835030008350300088F
:10017000350300083503000835030008350300087F
:10018000350300083503000880B500AF274B1B6816
:10019000264A43F001031360244B9B69234A43F032
:1001A00008039361214B9B69204A43F0100393613C
:1001B0001F4B5B681E4A23F4700353601C4B5B6843
:1001C0001B4A63F4001353601A4B1B68194A23F04F
:1001D000F0031360174B1B68164A43F020031360AB
:1001E000144B1B68134A23F470631360114B1B6894
:1001F000104A43F4007313600E4BDB680D4A83F022
:100200000203D360C82000F017F80A4BDB68094AE4
:1002100083F00403D360C82000F00EF8044BDB68C1
:10022000034A83F40053D360E6E700BF00100240A6
:1002300000100140000C014080B485B000AF786030
:1002400009E00023FB6002E0FB680133FB60FB6810
:10025000B3F57A7FF8D37B685A1E7A60002BF0D111
:1002600000BF00BF1437BD4680BC704780B400AFEC
:10027000074B1B68064A43F001031360044B9B695C
:10028000034A43F00803936100BFBD4680BC70473A
:100290000010024080B400AF044B1B68034A43F0D7
:1002A0002003136000BFBD4680BC7047000C0140B6
:1002B00080B586B000AF1A4A1A4BD31A7B60194B2F
:1002C0007B61194B3B610023FB600AE03A69531CD8
:1002D0003B617B69591C796112781A70FB680133A4
:1002E000FB60FA687B689A42F0D3104A104BD31A2D
:1002F0007B600F4B7B610023BB6007E07B695A1C6E
:100300007A6100221A70BB680133BB60BA687B68EF
:100310009A42F3D3FFF738FF00BF1837BD4680BDC0
:1003200000000020000000203C0300080000002026
:0C0330000000002080B400AFFEE700BF1A
:04000005080002B13C
:00000001FF
