:020000040800F2
:1000000080040020A90200082D0300082D03000829
:100010002D0300082D0300082D0300080000000038
:100020000000000000000000000000002D03000898
:100030002D030008000000002D0300082D03000818
:100040002D0300082D0300082D0300082D030008D0
:10005000000000002D0300082D0300082D030008F8
:100060002D0300082D0300082D0300082D030008B0
:100070002D0300082D0300082D0300082D030008A0
:100080002D0300082D0300082D0300082D03000890
:100090002D0300082D0300082D0300082D03000880
:1000A0002D0300082D0300082D0300082D03000870
:1000B0002D0300082D0300082D0300082D03000860
:1000C0002D0300082D0300082D0300082D03000850
:1000D0002D0300082D0300082D0300082D03000840
:1000E0002D0300082D0300082D0300082D03000830
:1000F0002D0300082D0300082D0300082D03000820
:100100002D0300082D0300082D0300082D0300080F
:100110002D0300082D0300082D0300082D030008FF
:100120002D0300082D0300082D0300082D030008EF
:100130002D0300082D0300082D0300082D030008DF
:100140002D0300082D0300082D0300082D030008CF
:100150002D0300082D0300082D0300082D030008BF
:100160002D0300082D0300082D0300082D030008AF
:100170002D0300082D0300082D0300082D0300089F
:100180002D0300082D03000880B500AF254B1B6828
:10019000244A43F001031360224B9B69214A43F038
:1001A000080393611F4B9B691E4A43F01003936140
:1001B0001D4B5B681C4A23F4700353601A4B5B6849
:1001C000194A43F400135360184B1B68174A23F075
:1001D000F0031360154B1B68144A43F020031360AF
:1001E000124B1B68114A23F4706313600F4B1B689A
:1001F0000E4A43F4007313600C4BDB680B4A83F028
:100200000203D3604FF47A7000F012F8064BDB68FB
:10021000054A83F40053D3604FF47A7000F008F875
:10022000EAE700BF0010024000100140000C01404E
:1002300080B485B000AF786009E00023FB6002E085
:10024000FB680133FB60FB68B3F57A7FF8D37B680A
:100250005A1E7A60002BF0D100BF00BF1437BD4694
:1002600080BC704780B400AF074B1B68064A43F060
:1002700001031360044B9B69034A43F00803936135
:1002800000BFBD4680BC70470010024080B400AF84
:10029000044B1B68034A43F02003136000BFBD46B4
:1002A00080BC7047000C014080B586B000AF1A4A90
:1002B0001A4BD31A7B60194B7B61194B3B610023AE
:1002C000FB600AE03A69531C3B617B69591C796108
:1002D00012781A70FB680133FB60FA687B689A42F7
:1002E000F0D3104A104BD31A7B600F4B7B61002375
:1002F000BB6007E07B695A1C7A6100221A70BB68F8
:100300000133BB60BA687B689A42F3D3FFF73CFFC6
:1003100000BF1837BD4680BD00000020000000204F
:1003200034030008000000200000002080B400AF6B
:04033000FEE700BF25
:04000005080002A944
:00000001FF
